{
  "contractName": "Verification",
  "abi": [
    {
      "inputs": [],
      "stateMutability": "nonpayable",
      "type": "constructor"
    },
    {
      "inputs": [],
      "name": "manager",
      "outputs": [
        {
          "internalType": "address",
          "name": "",
          "type": "address"
        }
      ],
      "stateMutability": "view",
      "type": "function"
    },
    {
      "inputs": [
        {
          "internalType": "int256",
          "name": "",
          "type": "int256"
        }
      ],
      "name": "storeCandidateDegreeInfo",
      "outputs": [
        {
          "internalType": "string",
          "name": "university",
          "type": "string"
        },
        {
          "internalType": "string",
          "name": "degreeName",
          "type": "string"
        },
        {
          "internalType": "string",
          "name": "major",
          "type": "string"
        },
        {
          "internalType": "int256",
          "name": "year",
          "type": "int256"
        }
      ],
      "stateMutability": "view",
      "type": "function"
    },
    {
      "inputs": [
        {
          "internalType": "int256",
          "name": "",
          "type": "int256"
        }
      ],
      "name": "storeCandidateInfo",
      "outputs": [
        {
          "internalType": "int256",
          "name": "ssn",
          "type": "int256"
        },
        {
          "internalType": "string",
          "name": "firstName",
          "type": "string"
        },
        {
          "internalType": "string",
          "name": "lastName",
          "type": "string"
        },
        {
          "internalType": "string",
          "name": "homeAddress",
          "type": "string"
        },
        {
          "internalType": "string",
          "name": "uni",
          "type": "string"
        }
      ],
      "stateMutability": "view",
      "type": "function"
    },
    {
      "inputs": [
        {
          "internalType": "int256",
          "name": "ssn",
          "type": "int256"
        },
        {
          "internalType": "string",
          "name": "firstName",
          "type": "string"
        },
        {
          "internalType": "string",
          "name": "lastName",
          "type": "string"
        },
        {
          "internalType": "string",
          "name": "homeAddress",
          "type": "string"
        },
        {
          "internalType": "string",
          "name": "uni",
          "type": "string"
        }
      ],
      "name": "candidateHandler",
      "outputs": [],
      "stateMutability": "nonpayable",
      "type": "function"
    },
    {
      "inputs": [
        {
          "internalType": "string",
          "name": "university",
          "type": "string"
        },
        {
          "internalType": "int256",
          "name": "ssn",
          "type": "int256"
        },
        {
          "internalType": "string",
          "name": "degreeName",
          "type": "string"
        },
        {
          "internalType": "string",
          "name": "major",
          "type": "string"
        },
        {
          "internalType": "int256",
          "name": "year",
          "type": "int256"
        }
      ],
      "name": "institutionHandler",
      "outputs": [],
      "stateMutability": "nonpayable",
      "type": "function"
    },
    {
      "inputs": [
        {
          "internalType": "int256",
          "name": "ssn",
          "type": "int256"
        }
      ],
      "name": "employerHandler",
      "outputs": [
        {
          "internalType": "string",
          "name": "",
          "type": "string"
        },
        {
          "internalType": "string",
          "name": "",
          "type": "string"
        },
        {
          "internalType": "string",
          "name": "",
          "type": "string"
        },
        {
          "internalType": "string",
          "name": "",
          "type": "string"
        },
        {
          "internalType": "string",
          "name": "",
          "type": "string"
        },
        {
          "internalType": "int256",
          "name": "",
          "type": "int256"
        }
      ],
      "stateMutability": "view",
      "type": "function"
    }
  ],
  "bytecode": "0x608060405234801561001057600080fd5b5033600260006101000a81548173ffffffffffffffffffffffffffffffffffffffff021916908373ffffffffffffffffffffffffffffffffffffffff16021790555061115d806100616000396000f3fe608060405234801561001057600080fd5b50600436106100625760003560e01c8063481c6a751461006757806359ff520e146100855780636ce2df4d146100a15780636e0a5edd146100d4578063cb11dea614610108578063e4af63dc1461013d575b600080fd5b61006f610159565b60405161007c9190610b51565b60405180910390f35b61009f600480360381019061009a9190610cfc565b61017f565b005b6100bb60048036038101906100b69190610de7565b610241565b6040516100cb9493929190610eab565b60405180910390f35b6100ee60048036038101906100e99190610de7565b610409565b6040516100ff959493929190610f05565b60405180910390f35b610122600480360381019061011d9190610de7565b61065f565b60405161013496959493929190610f74565b60405180910390f35b61015760048036038101906101529190610ff8565b6109cf565b005b600260009054906101000a900473ffffffffffffffffffffffffffffffffffffffff1681565b6040518060a0016040528086815260200185815260200184815260200183815260200182815250600160008781526020019081526020016000206000820151816000015560208201518160010190805190602001906101df929190610a6d565b5060408201518160020190805190602001906101fc929190610a6d565b506060820151816003019080519060200190610219929190610a6d565b506080820151816004019080519060200190610236929190610a6d565b509050505050505050565b6000602052806000526040600020600091509050806000018054610264906110f6565b80601f0160208091040260200160405190810160405280929190818152602001828054610290906110f6565b80156102dd5780601f106102b2576101008083540402835291602001916102dd565b820191906000526020600020905b8154815290600101906020018083116102c057829003601f168201915b5050505050908060010180546102f2906110f6565b80601f016020809104026020016040519081016040528092919081815260200182805461031e906110f6565b801561036b5780601f106103405761010080835404028352916020019161036b565b820191906000526020600020905b81548152906001019060200180831161034e57829003601f168201915b505050505090806002018054610380906110f6565b80601f01602080910402602001604051908101604052809291908181526020018280546103ac906110f6565b80156103f95780601f106103ce576101008083540402835291602001916103f9565b820191906000526020600020905b8154815290600101906020018083116103dc57829003601f168201915b5050505050908060030154905084565b6001602052806000526040600020600091509050806000015490806001018054610432906110f6565b80601f016020809104026020016040519081016040528092919081815260200182805461045e906110f6565b80156104ab5780601f10610480576101008083540402835291602001916104ab565b820191906000526020600020905b81548152906001019060200180831161048e57829003601f168201915b5050505050908060020180546104c0906110f6565b80601f01602080910402602001604051908101604052809291908181526020018280546104ec906110f6565b80156105395780601f1061050e57610100808354040283529160200191610539565b820191906000526020600020905b81548152906001019060200180831161051c57829003601f168201915b50505050509080600301805461054e906110f6565b80601f016020809104026020016040519081016040528092919081815260200182805461057a906110f6565b80156105c75780601f1061059c576101008083540402835291602001916105c7565b820191906000526020600020905b8154815290600101906020018083116105aa57829003601f168201915b5050505050908060040180546105dc906110f6565b80601f0160208091040260200160405190810160405280929190818152602001828054610608906110f6565b80156106555780601f1061062a57610100808354040283529160200191610655565b820191906000526020600020905b81548152906001019060200180831161063857829003601f168201915b5050505050905085565b606080606080606060008060016000898152602001908152602001600020600101805461068b906110f6565b80601f01602080910402602001604051908101604052809291908181526020018280546106b7906110f6565b80156107045780601f106106d957610100808354040283529160200191610704565b820191906000526020600020905b8154815290600101906020018083116106e757829003601f168201915b505050505090506000600160008a8152602001908152602001600020600201805461072e906110f6565b80601f016020809104026020016040519081016040528092919081815260200182805461075a906110f6565b80156107a75780601f1061077c576101008083540402835291602001916107a7565b820191906000526020600020905b81548152906001019060200180831161078a57829003601f168201915b5050505050905060008060008b815260200190815260200160002060000180546107d0906110f6565b80601f01602080910402602001604051908101604052809291908181526020018280546107fc906110f6565b80156108495780601f1061081e57610100808354040283529160200191610849565b820191906000526020600020905b81548152906001019060200180831161082c57829003601f168201915b5050505050905060008060008c81526020019081526020016000206002018054610872906110f6565b80601f016020809104026020016040519081016040528092919081815260200182805461089e906110f6565b80156108eb5780601f106108c0576101008083540402835291602001916108eb565b820191906000526020600020905b8154815290600101906020018083116108ce57829003601f168201915b5050505050905060008060008d81526020019081526020016000206001018054610914906110f6565b80601f0160208091040260200160405190810160405280929190818152602001828054610940906110f6565b801561098d5780601f106109625761010080835404028352916020019161098d565b820191906000526020600020905b81548152906001019060200180831161097057829003601f168201915b5050505050905060008060008e81526020019081526020016000206003015490508585858585859b509b509b509b509b509b5050505050505091939550919395565b6040518060800160405280868152602001848152602001838152602001828152506000808681526020019081526020016000206000820151816000019080519060200190610a1e929190610a6d565b506020820151816001019080519060200190610a3b929190610a6d565b506040820151816002019080519060200190610a58929190610a6d565b50606082015181600301559050505050505050565b828054610a79906110f6565b90600052602060002090601f016020900481019282610a9b5760008555610ae2565b82601f10610ab457805160ff1916838001178555610ae2565b82800160010185558215610ae2579182015b82811115610ae1578251825591602001919060010190610ac6565b5b509050610aef9190610af3565b5090565b5b80821115610b0c576000816000905550600101610af4565b5090565b600073ffffffffffffffffffffffffffffffffffffffff82169050919050565b6000610b3b82610b10565b9050919050565b610b4b81610b30565b82525050565b6000602082019050610b666000830184610b42565b92915050565b6000604051905090565b600080fd5b600080fd5b6000819050919050565b610b9381610b80565b8114610b9e57600080fd5b50565b600081359050610bb081610b8a565b92915050565b600080fd5b600080fd5b6000601f19601f8301169050919050565b7f4e487b7100000000000000000000000000000000000000000000000000000000600052604160045260246000fd5b610c0982610bc0565b810181811067ffffffffffffffff82111715610c2857610c27610bd1565b5b80604052505050565b6000610c3b610b6c565b9050610c478282610c00565b919050565b600067ffffffffffffffff821115610c6757610c66610bd1565b5b610c7082610bc0565b9050602081019050919050565b82818337600083830152505050565b6000610c9f610c9a84610c4c565b610c31565b905082815260208101848484011115610cbb57610cba610bbb565b5b610cc6848285610c7d565b509392505050565b600082601f830112610ce357610ce2610bb6565b5b8135610cf3848260208601610c8c565b91505092915050565b600080600080600060a08688031215610d1857610d17610b76565b5b6000610d2688828901610ba1565b955050602086013567ffffffffffffffff811115610d4757610d46610b7b565b5b610d5388828901610cce565b945050604086013567ffffffffffffffff811115610d7457610d73610b7b565b5b610d8088828901610cce565b935050606086013567ffffffffffffffff811115610da157610da0610b7b565b5b610dad88828901610cce565b925050608086013567ffffffffffffffff811115610dce57610dcd610b7b565b5b610dda88828901610cce565b9150509295509295909350565b600060208284031215610dfd57610dfc610b76565b5b6000610e0b84828501610ba1565b91505092915050565b600081519050919050565b600082825260208201905092915050565b60005b83811015610e4e578082015181840152602081019050610e33565b83811115610e5d576000848401525b50505050565b6000610e6e82610e14565b610e788185610e1f565b9350610e88818560208601610e30565b610e9181610bc0565b840191505092915050565b610ea581610b80565b82525050565b60006080820190508181036000830152610ec58187610e63565b90508181036020830152610ed98186610e63565b90508181036040830152610eed8185610e63565b9050610efc6060830184610e9c565b95945050505050565b600060a082019050610f1a6000830188610e9c565b8181036020830152610f2c8187610e63565b90508181036040830152610f408186610e63565b90508181036060830152610f548185610e63565b90508181036080830152610f688184610e63565b90509695505050505050565b600060c0820190508181036000830152610f8e8189610e63565b90508181036020830152610fa28188610e63565b90508181036040830152610fb68187610e63565b90508181036060830152610fca8186610e63565b90508181036080830152610fde8185610e63565b9050610fed60a0830184610e9c565b979650505050505050565b600080600080600060a0868803121561101457611013610b76565b5b600086013567ffffffffffffffff81111561103257611031610b7b565b5b61103e88828901610cce565b955050602061104f88828901610ba1565b945050604086013567ffffffffffffffff8111156110705761106f610b7b565b5b61107c88828901610cce565b935050606086013567ffffffffffffffff81111561109d5761109c610b7b565b5b6110a988828901610cce565b92505060806110ba88828901610ba1565b9150509295509295909350565b7f4e487b7100000000000000000000000000000000000000000000000000000000600052602260045260246000fd5b6000600282049050600182168061110e57607f821691505b602082108103611121576111206110c7565b5b5091905056fea2646970667358221220da7da245955a153982fefd86f22534d4c1643c5f485cd148aff5cb06fd6ba38864736f6c634300080d0033",
  "immutableReferences": {},
  "source": "pragma solidity >=0.4.22 <0.9.0;\n\ncontract Verification {\n    struct CandidateRequest{\n        int ssn;\n        string firstName;\n        string lastName;\n        string homeAddress;\n        string uni;\n    }\n\n    struct DegreeInfo {\n        string university;\n        string degreeName;\n        string major;\n        int year;\n    }\n\n\n    struct EmployerRequest{\n        string firstName;\n        string lastName;\n        string ssn;\n    }\n\n    // response that will be sent to employer\n    struct EmployerReponse {\n        CandidateRequest candidateInfo;\n        DegreeInfo[] degreeInfo;\n    }\n\n    // mapping when candidate joins the contract\n    mapping(int => DegreeInfo) public storeCandidateDegreeInfo;\n    mapping(int => CandidateRequest) public storeCandidateInfo;\n     \n    address public manager;\n    constructor() {\n        manager = msg.sender;\n    }\n\n    function candidateHandler(int ssn,  string memory firstName,  string memory lastName, string memory homeAddress, string memory uni) public {\n        storeCandidateInfo[ssn] = CandidateRequest(ssn, firstName, lastName, homeAddress, uni);\n    }\n\n    function institutionHandler(string memory university, int ssn, string memory degreeName, string memory major, int year) public {\n        storeCandidateDegreeInfo[ssn] = DegreeInfo(university, degreeName, major, year);\n    }\n\n    function employerHandler(int ssn) public view returns(string memory, string memory, string memory, string memory, string memory, int  ) {\n        string memory firstName = storeCandidateInfo[ssn].firstName;\n        string memory lastName = storeCandidateInfo[ssn].lastName;\n        string memory university = storeCandidateDegreeInfo[ssn].university;\n        string memory major = storeCandidateDegreeInfo[ssn].major;\n        string memory degreeName = storeCandidateDegreeInfo[ssn].degreeName;\n        int year = storeCandidateDegreeInfo[ssn].year;\n        return (firstName,lastName,university,major,degreeName,year);\n    }\n}",
  "sourcePath": "/Users/monirul/Desktop/contract/contracts/Verification.sol",
  "compiler": {
    "name": "solc",
    "version": "0.8.13+commit.abaa5c0e.Emscripten.clang"
  },
  "schemaVersion": "3.4.7",
  "updatedAt": "2022-05-06T01:45:24.483Z",
  "devdoc": {
    "kind": "dev",
    "methods": {},
    "version": 1
  },
  "userdoc": {
    "kind": "user",
    "methods": {},
    "version": 1
  }
}