{
  "contractName": "Verification",
  "abi": [
    {
      "inputs": [],
      "name": "manager",
      "outputs": [
        {
          "internalType": "address",
          "name": "",
          "type": "address"
        }
      ],
      "stateMutability": "view",
      "type": "function"
    },
    {
      "inputs": [
        {
          "internalType": "int256",
          "name": "",
          "type": "int256"
        },
        {
          "internalType": "uint256",
          "name": "",
          "type": "uint256"
        }
      ],
      "name": "storeCandidateDegreeInfo",
      "outputs": [
        {
          "internalType": "string",
          "name": "university",
          "type": "string"
        },
        {
          "internalType": "string",
          "name": "degreeName",
          "type": "string"
        },
        {
          "internalType": "string",
          "name": "major",
          "type": "string"
        },
        {
          "internalType": "int256",
          "name": "year",
          "type": "int256"
        }
      ],
      "stateMutability": "view",
      "type": "function"
    },
    {
      "inputs": [
        {
          "internalType": "int256",
          "name": "",
          "type": "int256"
        }
      ],
      "name": "storeCandidateInfo",
      "outputs": [
        {
          "internalType": "int256",
          "name": "ssn",
          "type": "int256"
        },
        {
          "internalType": "string",
          "name": "firstName",
          "type": "string"
        },
        {
          "internalType": "string",
          "name": "lastName",
          "type": "string"
        },
        {
          "internalType": "string",
          "name": "homeAddress",
          "type": "string"
        },
        {
          "internalType": "string",
          "name": "uni",
          "type": "string"
        }
      ],
      "stateMutability": "view",
      "type": "function"
    },
    {
      "inputs": [
        {
          "internalType": "int256",
          "name": "ssn",
          "type": "int256"
        },
        {
          "internalType": "string",
          "name": "firstName",
          "type": "string"
        },
        {
          "internalType": "string",
          "name": "lastName",
          "type": "string"
        },
        {
          "internalType": "string",
          "name": "homeAddress",
          "type": "string"
        },
        {
          "internalType": "string",
          "name": "uni",
          "type": "string"
        }
      ],
      "name": "candidateHandler",
      "outputs": [],
      "stateMutability": "nonpayable",
      "type": "function"
    },
    {
      "inputs": [
        {
          "internalType": "string",
          "name": "university",
          "type": "string"
        },
        {
          "internalType": "int256",
          "name": "ssn",
          "type": "int256"
        },
        {
          "internalType": "string",
          "name": "degreeName",
          "type": "string"
        },
        {
          "internalType": "string",
          "name": "major",
          "type": "string"
        },
        {
          "internalType": "int256",
          "name": "year",
          "type": "int256"
        }
      ],
      "name": "institutionHandler",
      "outputs": [],
      "stateMutability": "nonpayable",
      "type": "function"
    }
  ],
  "bytecode": "0x608060405234801561001057600080fd5b50610de4806100206000396000f3fe608060405234801561001057600080fd5b50600436106100575760003560e01c8063481c6a751461005c5780635386bf141461007a57806359ff520e146100ad5780636e0a5edd146100c9578063e4af63dc146100fd575b600080fd5b610064610119565b60405161007191906107e6565b60405180910390f35b610094600480360381019061008f9190610881565b61013f565b6040516100a49493929190610969565b60405180910390f35b6100c760048036038101906100c29190610af8565b610324565b005b6100e360048036038101906100de9190610be3565b6103e6565b6040516100f4959493929190610c10565b60405180910390f35b61011760048036038101906101129190610c7f565b61063c565b005b600260009054906101000a900473ffffffffffffffffffffffffffffffffffffffff1681565b6000602052816000526040600020818154811061015b57600080fd5b90600052602060002090600402016000915091505080600001805461017f90610d7d565b80601f01602080910402602001604051908101604052809291908181526020018280546101ab90610d7d565b80156101f85780601f106101cd576101008083540402835291602001916101f8565b820191906000526020600020905b8154815290600101906020018083116101db57829003601f168201915b50505050509080600101805461020d90610d7d565b80601f016020809104026020016040519081016040528092919081815260200182805461023990610d7d565b80156102865780601f1061025b57610100808354040283529160200191610286565b820191906000526020600020905b81548152906001019060200180831161026957829003601f168201915b50505050509080600201805461029b90610d7d565b80601f01602080910402602001604051908101604052809291908181526020018280546102c790610d7d565b80156103145780601f106102e957610100808354040283529160200191610314565b820191906000526020600020905b8154815290600101906020018083116102f757829003601f168201915b5050505050908060030154905084565b6040518060a001604052808681526020018581526020018481526020018381526020018281525060016000878152602001908152602001600020600082015181600001556020820151816001019080519060200190610384929190610702565b5060408201518160020190805190602001906103a1929190610702565b5060608201518160030190805190602001906103be929190610702565b5060808201518160040190805190602001906103db929190610702565b509050505050505050565b600160205280600052604060002060009150905080600001549080600101805461040f90610d7d565b80601f016020809104026020016040519081016040528092919081815260200182805461043b90610d7d565b80156104885780601f1061045d57610100808354040283529160200191610488565b820191906000526020600020905b81548152906001019060200180831161046b57829003601f168201915b50505050509080600201805461049d90610d7d565b80601f01602080910402602001604051908101604052809291908181526020018280546104c990610d7d565b80156105165780601f106104eb57610100808354040283529160200191610516565b820191906000526020600020905b8154815290600101906020018083116104f957829003601f168201915b50505050509080600301805461052b90610d7d565b80601f016020809104026020016040519081016040528092919081815260200182805461055790610d7d565b80156105a45780601f10610579576101008083540402835291602001916105a4565b820191906000526020600020905b81548152906001019060200180831161058757829003601f168201915b5050505050908060040180546105b990610d7d565b80601f01602080910402602001604051908101604052809291908181526020018280546105e590610d7d565b80156106325780601f1061060757610100808354040283529160200191610632565b820191906000526020600020905b81548152906001019060200180831161061557829003601f168201915b5050505050905085565b600080858152602001908152602001600020604051806080016040528087815260200185815260200184815260200183815250908060018154018082558091505060019003906000526020600020906004020160009091909190915060008201518160000190805190602001906106b4929190610702565b5060208201518160010190805190602001906106d1929190610702565b5060408201518160020190805190602001906106ee929190610702565b506060820151816003015550505050505050565b82805461070e90610d7d565b90600052602060002090601f0160209004810192826107305760008555610777565b82601f1061074957805160ff1916838001178555610777565b82800160010185558215610777579182015b8281111561077657825182559160200191906001019061075b565b5b5090506107849190610788565b5090565b5b808211156107a1576000816000905550600101610789565b5090565b600073ffffffffffffffffffffffffffffffffffffffff82169050919050565b60006107d0826107a5565b9050919050565b6107e0816107c5565b82525050565b60006020820190506107fb60008301846107d7565b92915050565b6000604051905090565b600080fd5b600080fd5b6000819050919050565b61082881610815565b811461083357600080fd5b50565b6000813590506108458161081f565b92915050565b6000819050919050565b61085e8161084b565b811461086957600080fd5b50565b60008135905061087b81610855565b92915050565b600080604083850312156108985761089761080b565b5b60006108a685828601610836565b92505060206108b78582860161086c565b9150509250929050565b600081519050919050565b600082825260208201905092915050565b60005b838110156108fb5780820151818401526020810190506108e0565b8381111561090a576000848401525b50505050565b6000601f19601f8301169050919050565b600061092c826108c1565b61093681856108cc565b93506109468185602086016108dd565b61094f81610910565b840191505092915050565b61096381610815565b82525050565b600060808201905081810360008301526109838187610921565b905081810360208301526109978186610921565b905081810360408301526109ab8185610921565b90506109ba606083018461095a565b95945050505050565b600080fd5b600080fd5b7f4e487b7100000000000000000000000000000000000000000000000000000000600052604160045260246000fd5b610a0582610910565b810181811067ffffffffffffffff82111715610a2457610a236109cd565b5b80604052505050565b6000610a37610801565b9050610a4382826109fc565b919050565b600067ffffffffffffffff821115610a6357610a626109cd565b5b610a6c82610910565b9050602081019050919050565b82818337600083830152505050565b6000610a9b610a9684610a48565b610a2d565b905082815260208101848484011115610ab757610ab66109c8565b5b610ac2848285610a79565b509392505050565b600082601f830112610adf57610ade6109c3565b5b8135610aef848260208601610a88565b91505092915050565b600080600080600060a08688031215610b1457610b1361080b565b5b6000610b2288828901610836565b955050602086013567ffffffffffffffff811115610b4357610b42610810565b5b610b4f88828901610aca565b945050604086013567ffffffffffffffff811115610b7057610b6f610810565b5b610b7c88828901610aca565b935050606086013567ffffffffffffffff811115610b9d57610b9c610810565b5b610ba988828901610aca565b925050608086013567ffffffffffffffff811115610bca57610bc9610810565b5b610bd688828901610aca565b9150509295509295909350565b600060208284031215610bf957610bf861080b565b5b6000610c0784828501610836565b91505092915050565b600060a082019050610c25600083018861095a565b8181036020830152610c378187610921565b90508181036040830152610c4b8186610921565b90508181036060830152610c5f8185610921565b90508181036080830152610c738184610921565b90509695505050505050565b600080600080600060a08688031215610c9b57610c9a61080b565b5b600086013567ffffffffffffffff811115610cb957610cb8610810565b5b610cc588828901610aca565b9550506020610cd688828901610836565b945050604086013567ffffffffffffffff811115610cf757610cf6610810565b5b610d0388828901610aca565b935050606086013567ffffffffffffffff811115610d2457610d23610810565b5b610d3088828901610aca565b9250506080610d4188828901610836565b9150509295509295909350565b7f4e487b7100000000000000000000000000000000000000000000000000000000600052602260045260246000fd5b60006002820490506001821680610d9557607f821691505b602082108103610da857610da7610d4e565b5b5091905056fea2646970667358221220a8145f4f95f4b2e1df2ebcca3435b307da82cd3f05745810b52fd2d4addb8fbd64736f6c634300080d0033",
  "immutableReferences": {},
  "source": "pragma solidity >=0.4.22 <0.9.0;\n\ncontract Verification {\n    struct CandidateRequest{\n        int ssn;\n        string firstName;\n        string lastName;\n        string homeAddress;\n        string uni;\n    }\n\n    struct DegreeInfo {\n        string university;\n        string degreeName;\n        string major;\n        int year;\n    }\n\n\n    struct EmployerRequest{\n        string firstName;\n        string lastName;\n        string ssn;\n    }\n\n    // response that will be sent to employer\n    struct EmployerReponse {\n        CandidateRequest candidateInfo;\n        DegreeInfo[] degreeInfo;\n    }\n\n    // mapping when candidate joins the contract\n    mapping(int => DegreeInfo[]) public storeCandidateDegreeInfo;\n    mapping(int => CandidateRequest) public storeCandidateInfo;\n     \n    address public manager;\n    // function Verification() public {\n    //     manager = msg.sender;\n    // }\n\n    function candidateHandler(int ssn,  string memory firstName,  string memory lastName, string memory homeAddress, string memory uni) public {\n        // CandidateRequest storage newCandidate;\n        // newCandidate.ssn = ssn;\n        // newCandidate.firstName = firstName;\n        // newCandidate.lastName = lastName;\n        // newCandidate.homeAddress = homeAddress;\n        // newCandidate.uni = uni;\n        // CandidateRequest memory newCandidate = CandidateRequest(ssn, firstName, lastName, homeAddress, uni);\n        // CandidateRequest newCandidate;\n        storeCandidateInfo[ssn] = CandidateRequest(ssn, firstName, lastName, homeAddress, uni);\n    }\n\n    function institutionHandler(string memory university, int ssn, string memory degreeName, string memory major, int year) public {\n        // DegreeInfo storage newDegree;\n        // newDegree.university = university;\n        // newDegree.degreeName = degreeName;\n        // newDegree.major = major;\n        // newDegree.year = year;\n        // storeCandidateDegreeInfo[ssn].push(newDegree); \n        // DegreeInfo memory newDegree = DegreeInfo(university, degreeName, major, year);\n        storeCandidateDegreeInfo[ssn].push(DegreeInfo(university, degreeName, major, year));\n    }\n\n    // function employerHandler(int ssn, string firstName, string lastName) public returns(EmployerReponse) {\n    //     EmployerReponse storage newEmployerResponse;\n    //     newEmployerResponse.candidateInfo = storeCandidateInfo[ssn];\n    //     newEmployerResponse.degreeInfo = storeCandidateDegreeInfo[ssn];\n    //     return newEmployerResponse;\n    // }\n}",
  "sourcePath": "/Users/monirul/Desktop/contract/contracts/Verification.sol",
  "compiler": {
    "name": "solc",
    "version": "0.8.13+commit.abaa5c0e.Emscripten.clang"
  },
  "schemaVersion": "3.4.7",
  "updatedAt": "2022-04-24T21:27:57.421Z",
  "devdoc": {
    "kind": "dev",
    "methods": {},
    "version": 1
  },
  "userdoc": {
    "kind": "user",
    "methods": {},
    "version": 1
  }
}